{
  "_format": "hh-sol-artifact-1",
  "contractName": "NFTick",
  "sourceName": "contracts/NFTickv1,5.sol",
  "abi": [
    {
      "inputs": [],
      "stateMutability": "nonpayable",
      "type": "constructor"
    },
    {
      "anonymous": false,
      "inputs": [
        {
          "indexed": true,
          "internalType": "address",
          "name": "account",
          "type": "address"
        },
        {
          "indexed": true,
          "internalType": "address",
          "name": "operator",
          "type": "address"
        },
        {
          "indexed": false,
          "internalType": "bool",
          "name": "approved",
          "type": "bool"
        }
      ],
      "name": "ApprovalForAll",
      "type": "event"
    },
    {
      "anonymous": false,
      "inputs": [
        {
          "indexed": true,
          "internalType": "address",
          "name": "operator",
          "type": "address"
        },
        {
          "indexed": true,
          "internalType": "address",
          "name": "from",
          "type": "address"
        },
        {
          "indexed": true,
          "internalType": "address",
          "name": "to",
          "type": "address"
        },
        {
          "indexed": false,
          "internalType": "uint256[]",
          "name": "ids",
          "type": "uint256[]"
        },
        {
          "indexed": false,
          "internalType": "uint256[]",
          "name": "values",
          "type": "uint256[]"
        }
      ],
      "name": "TransferBatch",
      "type": "event"
    },
    {
      "anonymous": false,
      "inputs": [
        {
          "indexed": true,
          "internalType": "address",
          "name": "operator",
          "type": "address"
        },
        {
          "indexed": true,
          "internalType": "address",
          "name": "from",
          "type": "address"
        },
        {
          "indexed": true,
          "internalType": "address",
          "name": "to",
          "type": "address"
        },
        {
          "indexed": false,
          "internalType": "uint256",
          "name": "id",
          "type": "uint256"
        },
        {
          "indexed": false,
          "internalType": "uint256",
          "name": "value",
          "type": "uint256"
        }
      ],
      "name": "TransferSingle",
      "type": "event"
    },
    {
      "anonymous": false,
      "inputs": [
        {
          "indexed": false,
          "internalType": "string",
          "name": "value",
          "type": "string"
        },
        {
          "indexed": true,
          "internalType": "uint256",
          "name": "id",
          "type": "uint256"
        }
      ],
      "name": "URI",
      "type": "event"
    },
    {
      "anonymous": false,
      "inputs": [
        {
          "indexed": true,
          "internalType": "uint256",
          "name": "tokenCount",
          "type": "uint256"
        },
        {
          "indexed": false,
          "internalType": "address",
          "name": "creator",
          "type": "address"
        },
        {
          "indexed": false,
          "internalType": "address",
          "name": "owner",
          "type": "address"
        },
        {
          "indexed": false,
          "internalType": "uint256",
          "name": "price",
          "type": "uint256"
        },
        {
          "indexed": false,
          "internalType": "bytes",
          "name": "tokenName",
          "type": "bytes"
        },
        {
          "indexed": false,
          "internalType": "bytes",
          "name": "data",
          "type": "bytes"
        },
        {
          "indexed": false,
          "internalType": "bool",
          "name": "sold",
          "type": "bool"
        }
      ],
      "name": "nftickCreated",
      "type": "event"
    },
    {
      "inputs": [
        {
          "internalType": "uint256",
          "name": "",
          "type": "uint256"
        }
      ],
      "name": "AllEventsCreated",
      "outputs": [
        {
          "internalType": "uint256",
          "name": "totalTokens",
          "type": "uint256"
        },
        {
          "internalType": "address payable",
          "name": "owner",
          "type": "address"
        },
        {
          "internalType": "address payable",
          "name": "creator",
          "type": "address"
        },
        {
          "internalType": "bytes",
          "name": "tokenName",
          "type": "bytes"
        },
        {
          "internalType": "bytes",
          "name": "data",
          "type": "bytes"
        },
        {
          "internalType": "uint256",
          "name": "listPrice",
          "type": "uint256"
        }
      ],
      "stateMutability": "view",
      "type": "function"
    },
    {
      "inputs": [
        {
          "internalType": "uint256",
          "name": "",
          "type": "uint256"
        }
      ],
      "name": "AllNfticksCreated",
      "outputs": [
        {
          "internalType": "uint256",
          "name": "totalTokens",
          "type": "uint256"
        },
        {
          "internalType": "address payable",
          "name": "owner",
          "type": "address"
        },
        {
          "internalType": "address payable",
          "name": "creator",
          "type": "address"
        },
        {
          "internalType": "bytes",
          "name": "tokenName",
          "type": "bytes"
        },
        {
          "internalType": "bytes",
          "name": "data",
          "type": "bytes"
        },
        {
          "internalType": "uint256",
          "name": "tokenId",
          "type": "uint256"
        },
        {
          "internalType": "uint256",
          "name": "currentPrice",
          "type": "uint256"
        }
      ],
      "stateMutability": "view",
      "type": "function"
    },
    {
      "inputs": [
        {
          "internalType": "bytes",
          "name": "",
          "type": "bytes"
        },
        {
          "internalType": "uint256",
          "name": "",
          "type": "uint256"
        }
      ],
      "name": "allNfticks",
      "outputs": [
        {
          "internalType": "uint256",
          "name": "totalTokens",
          "type": "uint256"
        },
        {
          "internalType": "address payable",
          "name": "owner",
          "type": "address"
        },
        {
          "internalType": "address payable",
          "name": "creator",
          "type": "address"
        },
        {
          "internalType": "bytes",
          "name": "tokenName",
          "type": "bytes"
        },
        {
          "internalType": "bytes",
          "name": "data",
          "type": "bytes"
        },
        {
          "internalType": "uint256",
          "name": "tokenId",
          "type": "uint256"
        },
        {
          "internalType": "uint256",
          "name": "currentPrice",
          "type": "uint256"
        }
      ],
      "stateMutability": "view",
      "type": "function"
    },
    {
      "inputs": [
        {
          "internalType": "address",
          "name": "account",
          "type": "address"
        },
        {
          "internalType": "uint256",
          "name": "id",
          "type": "uint256"
        }
      ],
      "name": "balanceOf",
      "outputs": [
        {
          "internalType": "uint256",
          "name": "",
          "type": "uint256"
        }
      ],
      "stateMutability": "view",
      "type": "function"
    },
    {
      "inputs": [
        {
          "internalType": "address[]",
          "name": "accounts",
          "type": "address[]"
        },
        {
          "internalType": "uint256[]",
          "name": "ids",
          "type": "uint256[]"
        }
      ],
      "name": "balanceOfBatch",
      "outputs": [
        {
          "internalType": "uint256[]",
          "name": "",
          "type": "uint256[]"
        }
      ],
      "stateMutability": "view",
      "type": "function"
    },
    {
      "inputs": [
        {
          "internalType": "uint256",
          "name": "_tokenId",
          "type": "uint256"
        },
        {
          "internalType": "bytes",
          "name": "_tokenName",
          "type": "bytes"
        }
      ],
      "name": "buyNftick",
      "outputs": [
        {
          "internalType": "bool",
          "name": "approved",
          "type": "bool"
        }
      ],
      "stateMutability": "payable",
      "type": "function"
    },
    {
      "inputs": [
        {
          "internalType": "uint256[]",
          "name": "tokenIds",
          "type": "uint256[]"
        },
        {
          "internalType": "uint256[]",
          "name": "amounts",
          "type": "uint256[]"
        },
        {
          "internalType": "bytes",
          "name": "_data",
          "type": "bytes"
        },
        {
          "internalType": "uint256",
          "name": "price",
          "type": "uint256"
        },
        {
          "internalType": "uint256",
          "name": "_totalTokens",
          "type": "uint256"
        },
        {
          "internalType": "bytes",
          "name": "_tokenName",
          "type": "bytes"
        }
      ],
      "name": "createNFTick",
      "outputs": [],
      "stateMutability": "payable",
      "type": "function"
    },
    {
      "inputs": [
        {
          "internalType": "uint256",
          "name": "id",
          "type": "uint256"
        }
      ],
      "name": "exists",
      "outputs": [
        {
          "internalType": "bool",
          "name": "",
          "type": "bool"
        }
      ],
      "stateMutability": "view",
      "type": "function"
    },
    {
      "inputs": [],
      "name": "fetchAllEventsCreated",
      "outputs": [
        {
          "components": [
            {
              "internalType": "uint256",
              "name": "totalTokens",
              "type": "uint256"
            },
            {
              "internalType": "address payable",
              "name": "owner",
              "type": "address"
            },
            {
              "internalType": "address payable",
              "name": "creator",
              "type": "address"
            },
            {
              "internalType": "bytes",
              "name": "tokenName",
              "type": "bytes"
            },
            {
              "internalType": "bytes",
              "name": "data",
              "type": "bytes"
            },
            {
              "internalType": "uint256[]",
              "name": "Ids",
              "type": "uint256[]"
            },
            {
              "internalType": "uint256",
              "name": "listPrice",
              "type": "uint256"
            }
          ],
          "internalType": "struct NFTick.nftickCollection[]",
          "name": "",
          "type": "tuple[]"
        }
      ],
      "stateMutability": "view",
      "type": "function"
    },
    {
      "inputs": [],
      "name": "fetchAllMyEvents",
      "outputs": [
        {
          "components": [
            {
              "internalType": "uint256",
              "name": "totalTokens",
              "type": "uint256"
            },
            {
              "internalType": "address payable",
              "name": "owner",
              "type": "address"
            },
            {
              "internalType": "address payable",
              "name": "creator",
              "type": "address"
            },
            {
              "internalType": "bytes",
              "name": "tokenName",
              "type": "bytes"
            },
            {
              "internalType": "bytes",
              "name": "data",
              "type": "bytes"
            },
            {
              "internalType": "uint256[]",
              "name": "Ids",
              "type": "uint256[]"
            },
            {
              "internalType": "uint256",
              "name": "listPrice",
              "type": "uint256"
            }
          ],
          "internalType": "struct NFTick.nftickCollection[]",
          "name": "",
          "type": "tuple[]"
        }
      ],
      "stateMutability": "view",
      "type": "function"
    },
    {
      "inputs": [],
      "name": "fetchAllMyNfticks",
      "outputs": [
        {
          "components": [
            {
              "internalType": "uint256",
              "name": "totalTokens",
              "type": "uint256"
            },
            {
              "internalType": "address payable",
              "name": "owner",
              "type": "address"
            },
            {
              "internalType": "address payable",
              "name": "creator",
              "type": "address"
            },
            {
              "internalType": "bytes",
              "name": "tokenName",
              "type": "bytes"
            },
            {
              "internalType": "bytes",
              "name": "data",
              "type": "bytes"
            },
            {
              "internalType": "uint256",
              "name": "tokenId",
              "type": "uint256"
            },
            {
              "internalType": "uint256",
              "name": "currentPrice",
              "type": "uint256"
            }
          ],
          "internalType": "struct NFTick.nftick[]",
          "name": "",
          "type": "tuple[]"
        }
      ],
      "stateMutability": "view",
      "type": "function"
    },
    {
      "inputs": [],
      "name": "fetchAllNfticks",
      "outputs": [
        {
          "components": [
            {
              "internalType": "uint256",
              "name": "totalTokens",
              "type": "uint256"
            },
            {
              "internalType": "address payable",
              "name": "owner",
              "type": "address"
            },
            {
              "internalType": "address payable",
              "name": "creator",
              "type": "address"
            },
            {
              "internalType": "bytes",
              "name": "tokenName",
              "type": "bytes"
            },
            {
              "internalType": "bytes",
              "name": "data",
              "type": "bytes"
            },
            {
              "internalType": "uint256",
              "name": "tokenId",
              "type": "uint256"
            },
            {
              "internalType": "uint256",
              "name": "currentPrice",
              "type": "uint256"
            }
          ],
          "internalType": "struct NFTick.nftick[]",
          "name": "",
          "type": "tuple[]"
        }
      ],
      "stateMutability": "view",
      "type": "function"
    },
    {
      "inputs": [
        {
          "internalType": "address",
          "name": "account",
          "type": "address"
        },
        {
          "internalType": "uint256",
          "name": "id",
          "type": "uint256"
        }
      ],
      "name": "getBalance",
      "outputs": [],
      "stateMutability": "view",
      "type": "function"
    },
    {
      "inputs": [],
      "name": "getListingPrice",
      "outputs": [
        {
          "internalType": "uint256",
          "name": "",
          "type": "uint256"
        }
      ],
      "stateMutability": "view",
      "type": "function"
    },
    {
      "inputs": [
        {
          "internalType": "address",
          "name": "account",
          "type": "address"
        },
        {
          "internalType": "address",
          "name": "operator",
          "type": "address"
        }
      ],
      "name": "isApprovedForAll",
      "outputs": [
        {
          "internalType": "bool",
          "name": "",
          "type": "bool"
        }
      ],
      "stateMutability": "view",
      "type": "function"
    },
    {
      "inputs": [
        {
          "internalType": "address",
          "name": "",
          "type": "address"
        },
        {
          "internalType": "address",
          "name": "",
          "type": "address"
        },
        {
          "internalType": "uint256[]",
          "name": "",
          "type": "uint256[]"
        },
        {
          "internalType": "uint256[]",
          "name": "",
          "type": "uint256[]"
        },
        {
          "internalType": "bytes",
          "name": "",
          "type": "bytes"
        }
      ],
      "name": "onERC1155BatchReceived",
      "outputs": [
        {
          "internalType": "bytes4",
          "name": "",
          "type": "bytes4"
        }
      ],
      "stateMutability": "nonpayable",
      "type": "function"
    },
    {
      "inputs": [
        {
          "internalType": "address",
          "name": "",
          "type": "address"
        },
        {
          "internalType": "address",
          "name": "",
          "type": "address"
        },
        {
          "internalType": "uint256",
          "name": "",
          "type": "uint256"
        },
        {
          "internalType": "uint256",
          "name": "",
          "type": "uint256"
        },
        {
          "internalType": "bytes",
          "name": "",
          "type": "bytes"
        }
      ],
      "name": "onERC1155Received",
      "outputs": [
        {
          "internalType": "bytes4",
          "name": "",
          "type": "bytes4"
        }
      ],
      "stateMutability": "nonpayable",
      "type": "function"
    },
    {
      "inputs": [
        {
          "internalType": "bytes",
          "name": "_tokenName",
          "type": "bytes"
        },
        {
          "internalType": "uint256",
          "name": "tokenId",
          "type": "uint256"
        },
        {
          "internalType": "uint256",
          "name": "newPrice",
          "type": "uint256"
        }
      ],
      "name": "relistNftick",
      "outputs": [],
      "stateMutability": "payable",
      "type": "function"
    },
    {
      "inputs": [
        {
          "internalType": "address",
          "name": "from",
          "type": "address"
        },
        {
          "internalType": "address",
          "name": "to",
          "type": "address"
        },
        {
          "internalType": "uint256[]",
          "name": "ids",
          "type": "uint256[]"
        },
        {
          "internalType": "uint256[]",
          "name": "amounts",
          "type": "uint256[]"
        },
        {
          "internalType": "bytes",
          "name": "data",
          "type": "bytes"
        }
      ],
      "name": "safeBatchTransferFrom",
      "outputs": [],
      "stateMutability": "nonpayable",
      "type": "function"
    },
    {
      "inputs": [
        {
          "internalType": "address",
          "name": "from",
          "type": "address"
        },
        {
          "internalType": "address",
          "name": "to",
          "type": "address"
        },
        {
          "internalType": "uint256",
          "name": "id",
          "type": "uint256"
        },
        {
          "internalType": "uint256",
          "name": "amount",
          "type": "uint256"
        },
        {
          "internalType": "bytes",
          "name": "data",
          "type": "bytes"
        }
      ],
      "name": "safeTransferFrom",
      "outputs": [],
      "stateMutability": "nonpayable",
      "type": "function"
    },
    {
      "inputs": [
        {
          "internalType": "address",
          "name": "operator",
          "type": "address"
        },
        {
          "internalType": "bool",
          "name": "approved",
          "type": "bool"
        }
      ],
      "name": "setApprovalForAll",
      "outputs": [],
      "stateMutability": "nonpayable",
      "type": "function"
    },
    {
      "inputs": [
        {
          "internalType": "bytes4",
          "name": "interfaceId",
          "type": "bytes4"
        }
      ],
      "name": "supportsInterface",
      "outputs": [
        {
          "internalType": "bool",
          "name": "",
          "type": "bool"
        }
      ],
      "stateMutability": "view",
      "type": "function"
    },
    {
      "inputs": [],
      "name": "totalNoOfEvents",
      "outputs": [
        {
          "internalType": "uint256",
          "name": "",
          "type": "uint256"
        }
      ],
      "stateMutability": "view",
      "type": "function"
    },
    {
      "inputs": [],
      "name": "totalNoOfNfticks",
      "outputs": [
        {
          "internalType": "uint256",
          "name": "",
          "type": "uint256"
        }
      ],
      "stateMutability": "view",
      "type": "function"
    },
    {
      "inputs": [
        {
          "internalType": "uint256",
          "name": "id",
          "type": "uint256"
        }
      ],
      "name": "totalSupply",
      "outputs": [
        {
          "internalType": "uint256",
          "name": "",
          "type": "uint256"
        }
      ],
      "stateMutability": "view",
      "type": "function"
    },
    {
      "inputs": [
        {
          "internalType": "uint256",
          "name": "_listingPrice",
          "type": "uint256"
        }
      ],
      "name": "updateListingPrice",
      "outputs": [],
      "stateMutability": "payable",
      "type": "function"
    },
    {
      "inputs": [
        {
          "internalType": "uint256",
          "name": "",
          "type": "uint256"
        }
      ],
      "name": "uri",
      "outputs": [
        {
          "internalType": "string",
          "name": "",
          "type": "string"
        }
      ],
      "stateMutability": "view",
      "type": "function"
    }
  ],
  "bytecode": "0x6080604052662386f26fc100006008553480156200001c57600080fd5b50604080516020810190915260008152620000378162000068565b50600480546001600160a01b0319908116331790915560058054909116301790556000600681905560075562000164565b80516200007d90600290602084019062000081565b5050565b8280546200008f9062000127565b90600052602060002090601f016020900481019282620000b35760008555620000fe565b82601f10620000ce57805160ff1916838001178555620000fe565b82800160010185558215620000fe579182015b82811115620000fe578251825591602001919060010190620000e1565b506200010c92915062000110565b5090565b5b808211156200010c576000815560010162000111565b600181811c908216806200013c57607f821691505b602082108114156200015e57634e487b7160e01b600052602260045260246000fd5b50919050565b6137d880620001746000396000f3fe60806040526004361061019b5760003560e01c806362281666116100ec578063bd85b0391161008a578063dc1abe8f11610064578063dc1abe8f146104ae578063e985e9c5146104e0578063f23a6e6114610529578063f242432a1461055557600080fd5b8063bd85b03914610456578063c641c1c514610483578063da5eda271461049857600080fd5b8063a22cb465116100c6578063a22cb465146103cb578063a2e51c1c146103eb578063ae677aa3146103fe578063bc197c811461041157600080fd5b8063622816661461038d57806365f5d0ea146103a35780636d9bfcee146103b857600080fd5b806313991c4e116101595780633eea04a5116101335780633eea04a5146102fe5780634e1273f4146103115780634f558e791461033e5780635a75e1e61461036d57600080fd5b806313991c4e1461029a5780632b04e840146102bc5780632eb2c2d6146102de57600080fd5b8062fdd58e146101a057806301ffc9a7146101d35780630dbaea92146102035780630e89341c14610236578063106500811461026357806312e8558514610285575b600080fd5b3480156101ac57600080fd5b506101c06101bb366004612d7a565b610575565b6040519081526020015b60405180910390f35b3480156101df57600080fd5b506101f36101ee366004612f26565b61060b565b60405190151581526020016101ca565b34801561020f57600080fd5b5061022361021e366004612ff2565b610651565b6040516101ca9796959493929190613574565b34801561024257600080fd5b50610256610251366004612ff2565b6107aa565b6040516101ca919061339b565b34801561026f57600080fd5b5061027861083e565b6040516101ca91906131c4565b34801561029157600080fd5b506008546101c0565b3480156102a657600080fd5b506102af610b73565b6040516101ca919061329f565b3480156102c857600080fd5b506102dc6102d7366004612d7a565b610dc4565b005b3480156102ea57600080fd5b506102dc6102f9366004612c39565b610dd3565b6102dc61030c366004612fa7565b610e1f565b34801561031d57600080fd5b5061033161032c366004612da3565b611087565b6040516101ca919061335a565b34801561034a57600080fd5b506101f3610359366004612ff2565b600090815260036020526040902054151590565b34801561037957600080fd5b50610223610388366004612f65565b6111e8565b34801561039957600080fd5b506101c060065481565b3480156103af57600080fd5b5061027861123f565b6101f36103c636600461300a565b6114d7565b3480156103d757600080fd5b506102dc6103e6366004612d40565b6116df565b6102dc6103f9366004612e6d565b6116ee565b6102dc61040c366004612ff2565b611cba565b34801561041d57600080fd5b5061043d61042c366004612c39565b63bc197c8160e01b95945050505050565b6040516001600160e01b031990911681526020016101ca565b34801561046257600080fd5b506101c0610471366004612ff2565b60009081526003602052604090205490565b34801561048f57600080fd5b506102af611d2c565b3480156104a457600080fd5b506101c060075481565b3480156104ba57600080fd5b506104ce6104c9366004612ff2565b611f98565b6040516101ca9695949392919061351c565b3480156104ec57600080fd5b506101f36104fb366004612c07565b6001600160a01b03918216600090815260016020908152604080832093909416825291909152205460ff1690565b34801561053557600080fd5b5061043d610544366004612cde565b63f23a6e6160e01b95945050505050565b34801561056157600080fd5b506102dc610570366004612cde565b6120eb565b60006001600160a01b0383166105e55760405162461bcd60e51b815260206004820152602a60248201527f455243313135353a2061646472657373207a65726f206973206e6f742061207660448201526930b634b21037bbb732b960b11b60648201526084015b60405180910390fd5b506000908152602081815260408083206001600160a01b03949094168352929052205490565b60006001600160e01b03198216636cdb3d1360e11b148061063c57506001600160e01b031982166303a24d0760e21b145b8061064b575061064b82612130565b92915050565b600c60205260009081526040902080546001820154600283015460038401805493946001600160a01b0393841694939092169261068d9061363a565b80601f01602080910402602001604051908101604052809291908181526020018280546106b99061363a565b80156107065780601f106106db57610100808354040283529160200191610706565b820191906000526020600020905b8154815290600101906020018083116106e957829003601f168201915b50505050509080600401805461071b9061363a565b80601f01602080910402602001604051908101604052809291908181526020018280546107479061363a565b80156107945780601f1061076957610100808354040283529160200191610794565b820191906000526020600020905b81548152906001019060200180831161077757829003601f168201915b5050505050908060050154908060060154905087565b6060600280546107b99061363a565b80601f01602080910402602001604051908101604052809291908181526020018280546107e59061363a565b80156108325780601f1061080757610100808354040283529160200191610832565b820191906000526020600020905b81548152906001019060200180831161081557829003601f168201915b50505050509050919050565b336000908152600a60205260408120600201546060919081906001600160a01b0316815b6006548110156108b1576001600160a01b038281166000908152600a60205260409020600201541633141561089f5761089c6001856135f2565b93505b806108a9816136a1565b915050610862565b506000836001600160401b038111156108da57634e487b7160e01b600052604160045260246000fd5b60405190808252806020026020018201604052801561091357816020015b610900612998565b8152602001906001900390816108f85790505b50905060005b600654811015610b6a576001600160a01b038381166000908152600a602052604090206002015416331415610b58576000818152600b6020908152604091829020825160e0810184528154815260018201546001600160a01b03908116938201939093526002820154909216928201929092526003820180548493929183916060840191906109a79061363a565b80601f01602080910402602001604051908101604052809291908181526020018280546109d39061363a565b8015610a205780601f106109f557610100808354040283529160200191610a20565b820191906000526020600020905b815481529060010190602001808311610a0357829003601f168201915b50505050508152602001600482018054610a399061363a565b80601f0160208091040260200160405190810160405280929190818152602001828054610a659061363a565b8015610ab25780601f10610a8757610100808354040283529160200191610ab2565b820191906000526020600020905b815481529060010190602001808311610a9557829003601f168201915b5050505050815260200160058201805480602002602001604051908101604052809291908181526020018280548015610b0a57602002820191906000526020600020905b815481526020019060010190808311610af6575b50505050508152602001600682015481525050848781518110610b3d57634e487b7160e01b600052603260045260246000fd5b6020908102919091010152610b536001876135f2565b955050505b80610b62816136a1565b915050610919565b50949350505050565b60606000806007546001600160401b03811115610ba057634e487b7160e01b600052604160045260246000fd5b604051908082528060200260200182016040528015610bd957816020015b610bc66129e7565b815260200190600190039081610bbe5790505b50905060005b600754811015610dbd576000818152600c6020908152604091829020825160e0810184528154815260018201546001600160a01b0390811693820193909352600282015490921692820192909252600382018054849392918391606084019190610c489061363a565b80601f0160208091040260200160405190810160405280929190818152602001828054610c749061363a565b8015610cc15780601f10610c9657610100808354040283529160200191610cc1565b820191906000526020600020905b815481529060010190602001808311610ca457829003601f168201915b50505050508152602001600482018054610cda9061363a565b80601f0160208091040260200160405190810160405280929190818152602001828054610d069061363a565b8015610d535780601f10610d2857610100808354040283529160200191610d53565b820191906000526020600020905b815481529060010190602001808311610d3657829003601f168201915b5050505050815260200160058201548152602001600682015481525050848681518110610d9057634e487b7160e01b600052603260045260246000fd5b6020908102919091010152610da66001866135f2565b945050508080610db5906136a1565b915050610bdf565b5092915050565b610dce8282610575565b505050565b6001600160a01b038516331480610def5750610def85336104fb565b610e0b5760405162461bcd60e51b81526004016105dc906133ae565b610e188585858585612155565b5050505050565b6000600984604051610e3191906130aa565b908152604080516020928190038301812060008781529352908220600101546001600160a01b03169250600990610e699087906130aa565b908152602001604051809103902060008581526020019081526020016000206004018054610e969061363a565b80601f0160208091040260200160405190810160405280929190818152602001828054610ec29061363a565b8015610f0f5780601f10610ee457610100808354040283529160200191610f0f565b820191906000526020600020905b815481529060010190602001808311610ef257829003601f168201915b50505050509050816001600160a01b0316336001600160a01b031614610f875760405162461bcd60e51b815260206004820152602760248201527f57616c6c6574206164647265737320646f6573206e6f74206f776e2074686973604482015266206e667469636b60c81b60648201526084016105dc565b600554610fa29033906001600160a01b031686600185612305565b60055460408051868152600160208201526001600160a01b0390921691339183917fc3d58168c5ae7397731d063d5bbf3d657854427343f4c083240f7aacaa2d0f62910160405180910390a482600986604051610fff91906130aa565b9081526040805191829003602090810183206000898152915220600601919091556005546001600160a01b03169060099061103b9088906130aa565b908152604080516020928190038301902060008881529252902060010180546001600160a01b0319166001600160a01b039290921691909117905563f23a6e6160e01b5b505050505050565b606081518351146110ec5760405162461bcd60e51b815260206004820152602960248201527f455243313135353a206163636f756e747320616e6420696473206c656e677468604482015268040dad2e6dac2e8c6d60bb1b60648201526084016105dc565b600083516001600160401b0381111561111557634e487b7160e01b600052604160045260246000fd5b60405190808252806020026020018201604052801561113e578160200160208202803683370190505b50905060005b84518110156111e0576111a585828151811061117057634e487b7160e01b600052603260045260246000fd5b602002602001015185838151811061119857634e487b7160e01b600052603260045260246000fd5b6020026020010151610575565b8282815181106111c557634e487b7160e01b600052603260045260246000fd5b60209081029190910101526111d9816136a1565b9050611144565b509392505050565b815160208184018101805160098252928201948201949094209190935290915260009081526040902080546001820154600283015460038401805493946001600160a01b0393841694939092169261068d9061363a565b60606000806006546001600160401b0381111561126c57634e487b7160e01b600052604160045260246000fd5b6040519080825280602002602001820160405280156112a557816020015b611292612998565b81526020019060019003908161128a5790505b50905060005b600654811015610dbd576000818152600b6020908152604091829020825160e0810184528154815260018201546001600160a01b03908116938201939093526002820154909216928201929092526003820180548493929183916060840191906113149061363a565b80601f01602080910402602001604051908101604052809291908181526020018280546113409061363a565b801561138d5780601f106113625761010080835404028352916020019161138d565b820191906000526020600020905b81548152906001019060200180831161137057829003601f168201915b505050505081526020016004820180546113a69061363a565b80601f01602080910402602001604051908101604052809291908181526020018280546113d29061363a565b801561141f5780601f106113f45761010080835404028352916020019161141f565b820191906000526020600020905b81548152906001019060200180831161140257829003601f168201915b505050505081526020016005820180548060200260200160405190810160405280929190818152602001828054801561147757602002820191906000526020600020905b815481526020019060010190808311611463575b505050505081526020016006820154815250508486815181106114aa57634e487b7160e01b600052603260045260246000fd5b60209081029190910101526114c06001866135f2565b9450505080806114cf906136a1565b9150506112ab565b6000806009836040516114ea91906130aa565b9081526040805160209281900383018120600088815293529082206006015492506009906115199086906130aa565b9081526020016040518091039020600086815260200190815260200160002060040180546115469061363a565b80601f01602080910402602001604051908101604052809291908181526020018280546115729061363a565b80156115bf5780601f10611594576101008083540402835291602001916115bf565b820191906000526020600020905b8154815290600101906020018083116115a257829003601f168201915b50505050509050813410156116165760405162461bcd60e51b815260206004820181905260248201527f4e6f7420656e6f7567682066756e647320666f72207472616e73616374696f6e60448201526064016105dc565b3360098560405161162791906130aa565b90815260408051602092819003830190206000898152908352818120600190810180546001600160a01b03199081166001600160a01b0397881617909155600c909452919020810180543393168317905560055461168a93169190889085612305565b600554604080518781526001602082015233926001600160a01b03169182917fc3d58168c5ae7397731d063d5bbf3d657854427343f4c083240f7aacaa2d0f62910160405180910390a4600195945050505050565b6116ea33838361242f565b5050565b845186511461170f5760405162461bcd60e51b81526004016105dc906134d4565b6008543410156117615760405162461bcd60e51b815260206004820181905260248201527f706c65617365207472616e7366657220746865206c697374696e67507269636560448201526064016105dc565b600554611779906001600160a01b0316878787612510565b600554611791906001600160a01b031633600161242f565b6005546040516001600160a01b039091169060009033907f4a39dc06d4c0dbc64b70af90fd698a233a518aa5d07e595d983b8c0526c8f7fb906117d7908b908b9061336d565b60405180910390a460005b8651811015611a87576040805160e0810182528481526005546001600160a01b0316602082015233918101919091526060810183905260808101869052875160a082019089908490811061184657634e487b7160e01b600052603260045260246000fd5b602002602001015181526020018581525060098360405161186791906130aa565b9081526020016040518091039020600089848151811061189757634e487b7160e01b600052603260045260246000fd5b602090810291909101810151825281810192909252604090810160002083518155838301516001820180546001600160a01b03199081166001600160a01b03938416179091559285015160028301805490941691161790915560608301518051919261190b92600385019290910190612a36565b5060808201518051611927916004840191602090910190612a36565b5060a0820151816005015560c082015181600601559050506040518060e00160405280848152602001600560009054906101000a90046001600160a01b03166001600160a01b03168152602001336001600160a01b031681526020018381526020018681526020018883815181106119af57634e487b7160e01b600052603260045260246000fd5b60209081029190910181015182529081018690526007546000908152600c825260409081902083518155838301516001820180546001600160a01b03199081166001600160a01b039384161790915592850151600283018054909416911617909155606083015180519192611a2c92600385019290910190612a36565b5060808201518051611a48916004840191602090910190612a36565b5060a0820151600582015560c09091015160069091015560078054906000611a6f836136a1565b91905055508080611a7f906136a1565b9150506117e2565b506040805160e0810182528381526005546001600160a01b0390811660208084019182523384860190815260608501878152608086018b905260a086018d905260c086018a90526006546000908152600b8452969096208551815592516001840180549186166001600160a01b031992831617905590516002840180549190951691161790925592518051929392611b259260038501920190612a36565b5060808201518051611b41916004840191602090910190612a36565b5060a08201518051611b5d916005840191602090910190612aba565b5060c0918201516006909101556040805160e0810182528481526005546001600160a01b0390811660208084019182523384860181815260608601898152608087018d905260a087018f90529786018b90526000918252600a83529590208451815591516001830180549185166001600160a01b031992831617905594516002830180549190941695169490941790915592518051919392611c0792600385019290910190612a36565b5060808201518051611c23916004840191602090910190612a36565b5060a08201518051611c3f916005840191602090910190612aba565b5060c091909101516006918201558054906000611c5b836136a1565b909155505060055460405183917fc62ac1373b1756fbba5693847fa0fdb7a4e6ca64f0764a1f907c7664ccf6940a91611caa9133916001600160a01b0390911690889087908b906000906130c6565b60405180910390a2505050505050565b6004546001600160a01b03163314611d275760405162461bcd60e51b815260206004820152602a60248201527f6f6e6c7920636f6e7472616374206f776e65722063616e2063616c6c207468696044820152693990333ab731ba34b7b760b11b60648201526084016105dc565b600855565b60606000806007546001600160401b03811115611d5957634e487b7160e01b600052604160045260246000fd5b604051908082528060200260200182016040528015611d9257816020015b611d7f6129e7565b815260200190600190039081611d775790505b50905060005b600754811015610dbd576000818152600c60205260409020600101546001600160a01b0316331415611f86576000818152600c6020908152604091829020825160e0810184528154815260018201546001600160a01b0390811693820193909352600282015490921692820192909252600382018054849392918391606084019190611e239061363a565b80601f0160208091040260200160405190810160405280929190818152602001828054611e4f9061363a565b8015611e9c5780601f10611e7157610100808354040283529160200191611e9c565b820191906000526020600020905b815481529060010190602001808311611e7f57829003601f168201915b50505050508152602001600482018054611eb59061363a565b80601f0160208091040260200160405190810160405280929190818152602001828054611ee19061363a565b8015611f2e5780601f10611f0357610100808354040283529160200191611f2e565b820191906000526020600020905b815481529060010190602001808311611f1157829003601f168201915b5050505050815260200160058201548152602001600682015481525050848681518110611f6b57634e487b7160e01b600052603260045260246000fd5b6020908102919091010152611f816001866135f2565b945050505b80611f90816136a1565b915050611d98565b600b60205260009081526040902080546001820154600283015460038401805493946001600160a01b03938416949390921692611fd49061363a565b80601f01602080910402602001604051908101604052809291908181526020018280546120009061363a565b801561204d5780601f106120225761010080835404028352916020019161204d565b820191906000526020600020905b81548152906001019060200180831161203057829003601f168201915b5050505050908060040180546120629061363a565b80601f016020809104026020016040519081016040528092919081815260200182805461208e9061363a565b80156120db5780601f106120b0576101008083540402835291602001916120db565b820191906000526020600020905b8154815290600101906020018083116120be57829003601f168201915b5050505050908060060154905086565b6001600160a01b038516331480612107575061210785336104fb565b6121235760405162461bcd60e51b81526004016105dc906133ae565b610e188585858585612305565b60006001600160e01b03198216630271189760e51b148061064b575061064b826126b1565b81518351146121765760405162461bcd60e51b81526004016105dc906134d4565b6001600160a01b03841661219c5760405162461bcd60e51b81526004016105dc90613445565b3360005b845181101561229f5760008582815181106121cb57634e487b7160e01b600052603260045260246000fd5b6020026020010151905060008583815181106121f757634e487b7160e01b600052603260045260246000fd5b602090810291909101810151600084815280835260408082206001600160a01b038e1683529093529190912054909150818110156122475760405162461bcd60e51b81526004016105dc9061348a565b6000838152602081815260408083206001600160a01b038e8116855292528083208585039055908b168252812080548492906122849084906135f2565b9250508190555050505080612298906136a1565b90506121a0565b50846001600160a01b0316866001600160a01b0316826001600160a01b03167f4a39dc06d4c0dbc64b70af90fd698a233a518aa5d07e595d983b8c0526c8f7fb87876040516122ef92919061336d565b60405180910390a461107f818787878787612701565b6001600160a01b03841661232b5760405162461bcd60e51b81526004016105dc90613445565b33600061233785612875565b9050600061234485612875565b90506000868152602081815260408083206001600160a01b038c168452909152902054858110156123875760405162461bcd60e51b81526004016105dc9061348a565b6000878152602081815260408083206001600160a01b038d8116855292528083208985039055908a168252812080548892906123c49084906135f2565b909155505060408051888152602081018890526001600160a01b03808b16928c821692918816917fc3d58168c5ae7397731d063d5bbf3d657854427343f4c083240f7aacaa2d0f62910160405180910390a4612424848a8a8a8a8a6128ce565b505050505050505050565b816001600160a01b0316836001600160a01b031614156124a35760405162461bcd60e51b815260206004820152602960248201527f455243313135353a2073657474696e6720617070726f76616c20737461747573604482015268103337b91039b2b63360b91b60648201526084016105dc565b6001600160a01b03838116600081815260016020908152604080832094871680845294825291829020805460ff191686151590811790915591519182527f17307eab39ab6107e8899845ad3d59bd9653f200f220920489ca2b5937696c31910160405180910390a3505050565b6001600160a01b0384166125705760405162461bcd60e51b815260206004820152602160248201527f455243313135353a206d696e7420746f20746865207a65726f206164647265736044820152607360f81b60648201526084016105dc565b81518351146125915760405162461bcd60e51b81526004016105dc906134d4565b3360005b8451811015612649578381815181106125be57634e487b7160e01b600052603260045260246000fd5b60200260200101516000808784815181106125e957634e487b7160e01b600052603260045260246000fd5b602002602001015181526020019081526020016000206000886001600160a01b03166001600160a01b03168152602001908152602001600020600082825461263191906135f2565b90915550819050612641816136a1565b915050612595565b50846001600160a01b031660006001600160a01b0316826001600160a01b03167f4a39dc06d4c0dbc64b70af90fd698a233a518aa5d07e595d983b8c0526c8f7fb878760405161269a92919061336d565b60405180910390a4610e1881600087878787612701565b60006001600160e01b03198216636cdb3d1360e11b14806126e257506001600160e01b031982166303a24d0760e21b145b8061064b57506301ffc9a760e01b6001600160e01b031983161461064b565b6001600160a01b0384163b1561107f5760405163bc197c8160e01b81526001600160a01b0385169063bc197c81906127459089908990889088908890600401613121565b602060405180830381600087803b15801561275f57600080fd5b505af192505050801561278f575060408051601f3d908101601f1916820190925261278c91810190612f49565b60015b61283c5761279b6136e8565b806308c379a014156127d557506127b0613700565b806127bb57506127d7565b8060405162461bcd60e51b81526004016105dc919061339b565b505b60405162461bcd60e51b815260206004820152603460248201527f455243313135353a207472616e7366657220746f206e6f6e20455243313135356044820152732932b1b2b4bb32b91034b6b83632b6b2b73a32b960611b60648201526084016105dc565b6001600160e01b0319811663bc197c8160e01b1461286c5760405162461bcd60e51b81526004016105dc906133fd565b50505050505050565b604080516001808252818301909252606091600091906020808301908036833701905050905082816000815181106128bd57634e487b7160e01b600052603260045260246000fd5b602090810291909101015292915050565b6001600160a01b0384163b1561107f5760405163f23a6e6160e01b81526001600160a01b0385169063f23a6e6190612912908990899088908890889060040161317f565b602060405180830381600087803b15801561292c57600080fd5b505af192505050801561295c575060408051601f3d908101601f1916820190925261295991810190612f49565b60015b6129685761279b6136e8565b6001600160e01b0319811663f23a6e6160e01b1461286c5760405162461bcd60e51b81526004016105dc906133fd565b6040518060e001604052806000815260200160006001600160a01b0316815260200160006001600160a01b03168152602001606081526020016060815260200160608152602001600081525090565b6040518060e001604052806000815260200160006001600160a01b0316815260200160006001600160a01b03168152602001606081526020016060815260200160008152602001600081525090565b828054612a429061363a565b90600052602060002090601f016020900481019282612a645760008555612aaa565b82601f10612a7d57805160ff1916838001178555612aaa565b82800160010185558215612aaa579182015b82811115612aaa578251825591602001919060010190612a8f565b50612ab6929150612af4565b5090565b828054828255906000526020600020908101928215612aaa5791602002820182811115612aaa578251825591602001919060010190612a8f565b5b80821115612ab65760008155600101612af5565b80356001600160a01b0381168114612b2057600080fd5b919050565b600082601f830112612b35578081fd5b81356020612b42826135cf565b604051612b4f8282613675565b8381528281019150858301600585901b87018401881015612b6e578586fd5b855b85811015612b8c57813584529284019290840190600101612b70565b5090979650505050505050565b600082601f830112612ba9578081fd5b81356001600160401b03811115612bc257612bc26136d2565b604051612bd9601f8301601f191660200182613675565b818152846020838601011115612bed578283fd5b816020850160208301379081016020019190915292915050565b60008060408385031215612c19578182fd5b612c2283612b09565b9150612c3060208401612b09565b90509250929050565b600080600080600060a08688031215612c50578081fd5b612c5986612b09565b9450612c6760208701612b09565b935060408601356001600160401b0380821115612c82578283fd5b612c8e89838a01612b25565b94506060880135915080821115612ca3578283fd5b612caf89838a01612b25565b93506080880135915080821115612cc4578283fd5b50612cd188828901612b99565b9150509295509295909350565b600080600080600060a08688031215612cf5578081fd5b612cfe86612b09565b9450612d0c60208701612b09565b9350604086013592506060860135915060808601356001600160401b03811115612d34578182fd5b612cd188828901612b99565b60008060408385031215612d52578182fd5b612d5b83612b09565b915060208301358015158114612d6f578182fd5b809150509250929050565b60008060408385031215612d8c578182fd5b612d9583612b09565b946020939093013593505050565b60008060408385031215612db5578182fd5b82356001600160401b0380821115612dcb578384fd5b818501915085601f830112612dde578384fd5b81356020612deb826135cf565b604051612df88282613675565b8381528281019150858301600585901b870184018b1015612e17578889fd5b8896505b84871015612e4057612e2c81612b09565b835260019690960195918301918301612e1b565b5096505086013592505080821115612e56578283fd5b50612e6385828601612b25565b9150509250929050565b60008060008060008060c08789031215612e85578081fd5b86356001600160401b0380821115612e9b578283fd5b612ea78a838b01612b25565b97506020890135915080821115612ebc578283fd5b612ec88a838b01612b25565b96506040890135915080821115612edd578283fd5b612ee98a838b01612b99565b9550606089013594506080890135935060a0890135915080821115612f0c578283fd5b50612f1989828a01612b99565b9150509295509295509295565b600060208284031215612f37578081fd5b8135612f4281613789565b9392505050565b600060208284031215612f5a578081fd5b8151612f4281613789565b60008060408385031215612f77578182fd5b82356001600160401b03811115612f8c578283fd5b612f9885828601612b99565b95602094909401359450505050565b600080600060608486031215612fbb578081fd5b83356001600160401b03811115612fd0578182fd5b612fdc86828701612b99565b9660208601359650604090950135949350505050565b600060208284031215613003578081fd5b5035919050565b6000806040838503121561301c578182fd5b8235915060208301356001600160401b03811115613038578182fd5b612e6385828601612b99565b6000815180845260208085019450808401835b8381101561307357815187529582019590820190600101613057565b509495945050505050565b6000815180845261309681602086016020860161360a565b601f01601f19169290920160200192915050565b600082516130bc81846020870161360a565b9190910192915050565b6001600160a01b038781168252861660208201526040810185905260c0606082018190526000906130f99083018661307e565b828103608084015261310b818661307e565b91505082151560a0830152979650505050505050565b6001600160a01b0386811682528516602082015260a06040820181905260009061314d90830186613044565b828103606084015261315f8186613044565b90508281036080840152613173818561307e565b98975050505050505050565b6001600160a01b03868116825285166020820152604081018490526060810183905260a0608082018190526000906131b99083018461307e565b979650505050505050565b60006020808301818452808551808352604092508286019150828160051b870101848801865b8381101561329157888303603f19018552815180518452878101516001600160a01b039081168986015287820151168785015260608082015160e082870181905291906132398388018261307e565b9250505060808083015186830382880152613254838261307e565b9250505060a0808301518683038288015261326f8382613044565b60c09485015197909401969096525050948701949250908601906001016131ea565b509098975050505050505050565b60006020808301818452808551808352604092508286019150828160051b870101848801865b8381101561329157888303603f19018552815180518452878101516001600160a01b039081168986015287820151168785015260608082015160e082870181905291906133148388018261307e565b925050506080808301518683038288015261332f838261307e565b60a0858101519089015260c094850151949097019390935250505093860193908601906001016132c5565b602081526000612f426020830184613044565b6040815260006133806040830185613044565b82810360208401526133928185613044565b95945050505050565b602081526000612f42602083018461307e565b6020808252602f908201527f455243313135353a2063616c6c6572206973206e6f7420746f6b656e206f776e60408201526e195c881b9bdc88185c1c1c9bdd9959608a1b606082015260800190565b60208082526028908201527f455243313135353a204552433131353552656365697665722072656a656374656040820152676420746f6b656e7360c01b606082015260800190565b60208082526025908201527f455243313135353a207472616e7366657220746f20746865207a65726f206164604082015264647265737360d81b606082015260800190565b6020808252602a908201527f455243313135353a20696e73756666696369656e742062616c616e636520666f60408201526939103a3930b739b332b960b11b606082015260800190565b60208082526028908201527f455243313135353a2069647320616e6420616d6f756e7473206c656e677468206040820152670dad2e6dac2e8c6d60c31b606082015260800190565b8681526001600160a01b0386811660208301528516604082015260c06060820181905260009061354e9083018661307e565b8281036080840152613560818661307e565b9150508260a0830152979650505050505050565b8781526001600160a01b0387811660208301528616604082015260e0606082018190526000906135a69083018761307e565b82810360808401526135b8818761307e565b60a0840195909552505060c0015295945050505050565b60006001600160401b038211156135e8576135e86136d2565b5060051b60200190565b60008219821115613605576136056136bc565b500190565b60005b8381101561362557818101518382015260200161360d565b83811115613634576000848401525b50505050565b600181811c9082168061364e57607f821691505b6020821081141561366f57634e487b7160e01b600052602260045260246000fd5b50919050565b601f8201601f191681016001600160401b038111828210171561369a5761369a6136d2565b6040525050565b60006000198214156136b5576136b56136bc565b5060010190565b634e487b7160e01b600052601160045260246000fd5b634e487b7160e01b600052604160045260246000fd5b600060033d11156136fd57600481823e5160e01c5b90565b600060443d101561370e5790565b6040516003193d81016004833e81513d6001600160401b03816024840111818411171561373d57505050505090565b82850191508151818111156137555750505050505090565b843d870101602082850101111561376f5750505050505090565b61377e60208286010187613675565b509095945050505050565b6001600160e01b03198116811461379f57600080fd5b5056fea26469706673582212208bb3d4d2928a5533cbc0b098516497f04758dd0e08812d4d2200c6f5e236ab0064736f6c63430008040033",
  "linkReferences": {},
  "deployedLinkReferences": {}
}